S00B00005031302E7372656368
S113000071C000008EC000008CC000008AC00000D7
S113001088C0000086C0000084C0000082C00000C8
S113002080C000007EC000007CC000007AC00000D8
S113003078C0000076C0000074C0000072C00000E8
S113004070C000006EC000006CC000006AC00000F8
S113005068C000009FC0000064C0000062C00000CF
S113006060C000005EC000005CC000005AC0000018
S113007058C0000056C0000054C0000052C0000028
S113008050C000004EC000004CC000004AC0000038
S113009048C0000046C0000044C0000042C0000048
S11300A040C000003EC000003CC000003AC0000058
S11300B038C0000036C0000034C0000032C0000068
S11300C030C000002EC000002CC000002AC0000078
S11300D028C0000026C0000024C0000022C0000088
S11300E020C0000011241FBECFEFD1E2DEBFCDBF80
S11300F000E00CBF13E0A0E0B2E0EAE4F4E000E0CA
S11301000BBF02C007900D92A831B107D9F723E0C5
S1130110A8E1B3E001C01D92A132B207E1F702D019
S113012092C16ECF81E090E0EDD00DD116D003D115
S11301308823E9F300D1803729F466E470E080E095
S113014092E0B2D0F8D0863511F481E0B9D0F3D082
S1130150863769F78FEFB4D0EACF82E084BD93E0AD
S113016095BD16BC99EF97BD80936E007894089561
S1130170882351F093E09093B0009EE29093B100F5
S113018081508093B3000895E1EBF0E08081897F92
S1130190808308951F920F920FB60F9211240BB60D
S11301A00F922F933F934F935F936F937F938F930C
S11301B09F93AF93BF93CF93DF93EF93FF93C0913C
S11301C01803D09119032196D0931903C0931803EF
S11301D0E0911F03F0912003828193818C179D0786
S11301E0D8F080911E0394E0899FE00DF11D112445
S11301F06081718180E094E0C1D09B0140E050E0D7
S113020060E074E284EF90E0E0D0822FB1DF80916F
S11302101B0381110DC01FC081E080931B0310924A
S113022019031092180380911B038823A1F002C0C4
S11302302B9788F480E094E060E070E0B3D09B01F9
S1130240770F440B550B60E074E284EF90E0BDD06F
S1130250822F8EDF03C081E080931A0380911B03F9
S1130260882369F080911A03882349F010921B03B4
S113027010921A0380911E038F5F80931E03FF91D7
S1130280EF91DF91CF91BF91AF919F918F917F912A
S11302906F915F914F913F912F910F900BBE0F90F3
S11302A00FBE0F901F9018959093200380931F0307
S11302B010921E0360931D0382E380931C03089530
S11302C0813051F480911C03813578F480911C03B2
S11302D0865F80931C0309C080911C038A3028F038
S11302E080911C038A5080931C038091B3009091E9
S11302F01C03899FC001112464E670E053D060930D
S1130300B400089522E02093C00028E12093C100A6
S113031026E02093C200892B39F48FEC90E090936F
S1130320C5008093C400089587E690E09093C500CB
S11303308093C4000895E0ECF0E080818823ECF71A
S11303408091C60008958EEF8DB982E08093C0003D
S113035098E19093C10096E09093C20014BC85BDCF
S11303606099FECF16BC609BFECF15BC86B590E0AD
S113037001979093C5008093C4000895AA1BBB1BEA
S113038051E107C0AA1FBB1FA617B70710F0A61B91
S1130390B70B881F991F5A95A9F780959095BC01B2
S11303A0CD01089597FB072E16F4009406D077FD2F
S11303B008D0E4DF07FC05D03EF4909581959F4F6B
S11303C00895709561957F4F0895052E97FB16F457
S11303D000940FD057FD05D014D007FC02D046F48A
S11303E008C050954095309521953F4F4F4F5F4F32
S11303F0089590958095709561957F4F8F4F9F4F8D
S11304000895A1E21A2EAA1BBB1BFD010DC0AA1F51
S1130410BB1FEE1FFF1FA217B307E407F50720F069
S1130420A21BB30BE40BF50B661F771F881F991FE4
S11304301A9469F760957095809590959B01AC012D
S10D0440BD01CF010895F894FFCF29
S113044AB801F401B801F401B801F4015D017701BE
S113045A0B027D00B801F4015D0177010B027D00F6
S113046AB801E8039302F4019302F4019302F4013C
S113047ABA0277010B027D009F01F4015D01770145
S113048A0B027D00B801E8037003F401B801770197
S113049AB8017D007003F4013E03FA001003FA0068
S11304AAE4027D00BA027D00E402FA000000FA00C8
S11304BAC701FA006E02F4014B02FA002A02FA009A
S11304CA0B027D00D2017D000B02FA000000FA0043
S11304DA5D017D009F01F4015D017701B8017D0092
S11304EA0B02F401B80177010B027D009302E803C1
S11304FA7003F401B8017701B8017D007003F401B7
S113050A3E03FA001003FA00E4027D00BA027D00F9
S113051AE402FA000000FA00C701FA006E02F401CC
S113052A4B02FA002A02FA000B027D00D2017D0076
S113053A0B02FA000000FA005D01FA009F01F401BF
S113054A5D0177010B027D00B801F4015D017701B9
S10B055A05017D00B801E8036E
S9030000FC
