:1000000071C000008EC000008CC000008AC00000DB
:1000100088C0000086C0000084C0000082C00000CC
:1000200080C000007EC000007CC000007AC00000DC
:1000300078C0000076C0000074C0000072C00000EC
:1000400070C000006EC000006CC000006AC00000FC
:1000500068C00000A9C0000064C0000062C00000C9
:1000600060C000005EC000005CC000005AC000001C
:1000700058C0000056C0000054C0000052C000002C
:1000800050C000004EC000004CC000004AC000003C
:1000900048C0000046C0000044C0000042C000004C
:1000A00040C000003EC000003CC000003AC000005C
:1000B00038C0000036C0000034C0000032C000006C
:1000C00030C000002EC000002CC000002AC000007C
:1000D00028C0000026C0000024C0000022C000008C
:1000E00020C0000011241FBECFEFD1E2DEBFCDBF84
:1000F00000E00CBF13E0A0E0B2E0E0E4F5E000E0D7
:100100000BBF02C007900D92A236B107D9F723E0CA
:10011000A2E6B3E001C01D92A038B207E1F702D019
:100120000DC26ECF80E090E019D18CD123D081E058
:1001300092E03DD183E192E03AD129D1803789F034
:10014000863719F08635C9F706C086E192E02FD1CF
:100150008FEFBDD0F2CF82E292E029D181E0B7D01B
:10016000ECCF8EE292E023D166E470E08EE392E081
:100170009AD0E3CF82E084BD93E095BD16BC99EFA1
:1001800097BD80936E0078940895882351F093E290
:100190009093B0009EE09093B10081508093B300A3
:1001A00008951092B10008951F920F920FB60F920A
:1001B00011240BB60F922F933F934F935F936F933E
:1001C0007F938F939F93AF93BF93EF93FF93809110
:1001D000620390916303019690936303809362039B
:1001E00020916403309165038217930708F448C097
:1001F0001092630310926203809100028823A9F198
:1002000090917D0380917C03981779F180917D0313
:10021000E0917E03F0917F0394E0899FE00DF11D52
:1002200011242081318140E050E064E274EF80E0ED
:1002300090E037D1822FA9DF1092000280917D03D8
:10024000E0917E03F0917F0394E0899FE00DF11D22
:10025000112482819381909365038093640380913C
:100260007D038F5F80937D030BC081E0809300024C
:1002700080E08BDF8AE090E09093650380936403D5
:10028000FF91EF91BF91AF919F918F917F916F916E
:100290005F914F913F912F910F900BBE0F900FBE2A
:1002A0000F901F90189590937F0380937E03109278
:1002B0007D0360937C0382E390E090937B038093C3
:1002C0007A03E1E0F1E080818064808308958130E9
:1002D00089F480917A0390917B0381359105C8F46C
:1002E00080917A0390917B030A9690937B0380938D
:1002F0007A030FC080917A0390917B030A9748F0AC
:1003000080917A0390917B030A9790937B0380936B
:100310007A034091B30080917A0390917B03489FC8
:100320009001499F300D11243695279536952795D4
:10033000ABE7B4E1D2D0969587958093B4006091F5
:100340007A0370917B034AE086E693E03ED086E52F
:1003500093E02DD086E693E02AC0089522E0209312
:10036000C00028E12093C10026E02093C200892B21
:1003700039F48FEC90E09093C5008093C400089509
:1003800087E690E09093C5008093C4000895E0EC68
:10039000F0E080818823ECF78091C6000895E0ECBE
:1003A000F0E0908195FFFDCF8093C6000895CF9334
:1003B000DF93EC018881882329F02196F0DF899171
:1003C0008111FCCFDF91CF9108950F931F93CF93AD
:1003D000DF93FC019B01C0E0D0E0042F10E002C0DD
:1003E000EC01FD01C901B80148D0262F372F8A3012
:1003F000910510F0895C01C0805DDF01119680835A
:10040000CE0101962115310559F71182A81BB90BB0
:10041000209799F0FD01A80FB91F80E090E020819E
:100420003E91231711F030832C93019631969E0153
:10043000281B390B8217930790F3DF91CF911F91FF
:100440000F9108958EEF8DB982E08093C00098E1FE
:100450009093C10096E09093C20014BC85BD609952
:10046000FECF16BC609BFECF15BC86B590E0019711
:100470009093C5008093C4000895AA1BBB1B51E153
:1004800007C0AA1FBB1FA617B70710F0A61BB70B04
:10049000881F991F5A95A9F780959095BC01CD01A9
:1004A0000895052E97FB16F400940FD057FD05D044
:1004B00023D007FC02D046F408C0509540953095F3
:1004C00021953F4F4F4F5F4F0895909580957095C0
:1004D00061957F4F8F4F9F4F0895A29FB001B39FAB
:1004E000C001A39F700D811D1124911DB29F700D3D
:1004F000811D1124911D0895A1E21A2EAA1BBB1B78
:10050000FD010DC0AA1FBB1FEE1FFF1FA217B307DF
:10051000E407F50720F0A21BB30BE40BF50B661FF5
:10052000771F881F991F1A9469F7609570958095B9
:1005300090959B01AC01BD01CF010895F894FFCFC8
:100540000150313020736F6E696469746F2070726E
:10055000726F000A0D000A0D2D20566F6C756D65C7
:100560006E000A0D2B20566F6C756D656E000A0DBE
:10057000546F6361722063616E63696F6E00B801CE
:10058000F401B801F401B801F4015D0177010B0237
:100590007D00B801F4015D0177010B027D00B80117
:1005A000E8039302F4019302F4019302F401BA0206
:1005B00077010B027D009F01F4015D0177010B02C1
:1005C0007D00B801E8037003F401B8017701B801B8
:1005D0007D007003F4013E03FA001003FA00E40208
:1005E0007D00BA027D00E402FA000000FA00C701B3
:1005F000FA006E02F4014B02FA002A02FA000B0222
:100600007D00D2017D000B02FA000000FA005D01BE
:100610007D009F01F4015D017701B8017D000B02AF
:10062000F401B80177010B027D009302E803700327
:10063000F401B8017701B8017D007003F4013E03B5
:10064000FA001003FA00E4027D00BA027D00E40221
:10065000FA000000FA00C701FA006E02F4014B0232
:10066000FA002A02FA000B027D00D2017D000B0283
:10067000FA000000FA005D01FA009F01F4015D013B
:1006800077010B027D00B801F4015D0177010501DE
:100690007D00B801E8030A0D566F6C756D656E3A02
:0206A000200038
:00000001FF
