S00B00005031302E7372656368
S113000071C000008EC000008CC000008AC00000D7
S113001088C0000086C0000084C0000082C00000C8
S113002080C000007EC000007CC000007AC00000D8
S113003078C0000076C0000074C0000072C00000E8
S113004070C000006EC000006CC000006AC00000F8
S113005068C00000A9C0000064C0000062C00000C5
S113006060C000005EC000005CC000005AC0000018
S113007058C0000056C0000054C0000052C0000028
S113008050C000004EC000004CC000004AC0000038
S113009048C0000046C0000044C0000042C0000048
S11300A040C000003EC000003CC000003AC0000058
S11300B038C0000036C0000034C0000032C0000068
S11300C030C000002EC000002CC000002AC0000078
S11300D028C0000026C0000024C0000022C0000088
S11300E020C0000011241FBECFEFD1E2DEBFCDBF80
S11300F000E00CBF13E0A0E0B2E0E8E4F5E000E0CB
S11301000BBF02C007900D92A236B107D9F723E0C6
S1130110A2E6B3E001C01D92A138B207E1F702D014
S113012011C26ECF80E090E01DD190D123D080E049
S113013092E041D182E192E03ED12DD1803789F025
S1130140863719F08635C9F706C085E192E033D1C8
S11301508FEFC1D0F2CF81E292E02DD181E0BBD00C
S1130160ECCF8DE292E027D166E470E08DE392E07B
S11301709ED0E3CF82E084BD93E095BD16BC99EF99
S113018097BD80936E0078940895882351F093E28C
S11301909093B0009EE09093B10081508093B3009F
S11301A008951092B10008951F920F920FB60F9206
S11301B011240BB60F922F933F934F935F936F933A
S11301C07F938F939F93AF93BF93EF93FF9380910C
S11301D06203909163030196909363038093620397
S11301E020916503309166038217930708F44CC08D
S11301F01092630310926203809164038823C9F10F
S113020090917E0380917D03981799F11092640375
S113021080917E03E0917F03F091800394E0899FB5
S1130220E00DF11D11246081718180E094E029D1F9
S11302309B0140E050E060E074E284EF90E035D14F
S1130240822FA3DF80917E03E0917F03F0918003EE
S113025094E0899FE00DF11D112482819381909394
S113026066038093650380917E038F5F80937E0392
S11302700BC081E08093640380E087DF8AE090E034
S11302809093660380936503FF91EF91BF91AF91C3
S11302909F918F917F916F915F914F913F912F919A
S11302A00F900BBE0F900FBE0F901F901895909358
S11302B0800380937F0310927E0360937D0382E327
S11302C090E090937C0380937B03E1E0F1E08081F4
S11302D0806480830895813089F480917B039091B8
S11302E07C0381359105C8F480917B0390917C0354
S11302F00A9690937C0380937B030FC080917B03C9
S113030090917C030A9748F080917B0390917C0341
S11303100A9790937C0380937B034091B300809170
S11303207B0390917C03489F9001499F300D1124D9
S11303303695279536952795ABE7B4E1D2D09695B7
S113034087958093B40060917B0370917C034AE0AD
S113035087E693E03ED085E593E02DD087E693E0F1
S11303602AC0089522E02093C00028E12093C10010
S113037026E02093C200892B39F48FEC90E090930F
S1130380C5008093C400089587E690E09093C5006B
S11303908093C4000895E0ECF0E080818823ECF7BA
S11303A08091C6000895E0ECF0E0908195FFFDCFC8
S11303B08093C6000895CF93DF93EC01888188234E
S11303C029F02196F0DF89918111FCCFDF91CF9143
S11303D008950F931F93CF93DF93FC019B01C0E01B
S11303E0D0E0042F10E002C0EC01FD01C901B80106
S11303F048D0262F372F8A30910510F0895C01C030
S1130400805DDF0111968083CE01019621153105AF
S113041059F71182A81BB90B209799F0FD01A80F79
S1130420B91F80E090E020813E91231711F03083C2
S11304302C93019631969E01281B390B8217930742
S113044090F3DF91CF911F910F9108958EEF8DB9A5
S113045082E08093C00098E19093C10096E090936D
S1130460C20014BC85BD6099FECF16BC609BFECF54
S113047015BC86B590E001979093C5008093C400A5
S11304800895AA1BBB1B51E107C0AA1FBB1FA617D7
S1130490B70710F0A61BB70B881F991F5A95A9F729
S11304A080959095BC01CD010895052E97FB16F417
S11304B000940FD057FD05D023D007FC02D046F49A
S11304C008C050954095309521953F4F4F4F5F4F51
S11304D0089590958095709561957F4F8F4F9F4FAC
S11304E00895A29FB001B39FC001A39F700D811D09
S11304F01124911DB29F700D811D1124911D089529
S1130500A1E21A2EAA1BBB1BFD010DC0AA1FBB1F13
S1130510EE1FFF1FA217B307E407F50720F0A21B85
S1130520B30BE40BF50B661F771F881F991F1A94F2
S113053069F760957095809590959B01AC01BD011C
S10B0540CF010895F894FFCFE8
S113054850313020736F6E696469746F20707272F1
S11305586F000A0D000A0D2D20566F6C756D656EBF
S1130568000A0D2B20566F6C756D656E000A0D54CC
S11305786F6361722063616E63696F6E00B801F422
S113058801B801F401B801F4015D0177010B027DA2
S113059800B801F4015D0177010B027D00B801E8A0
S11305A8039302F4019302F4019302F401BA02776B
S11305B8010B027D009F01F4015D0177010B027DAF
S11305C800B801E8037003F401B8017701B8017DAC
S11305D8007003F4013E03FA001003FA00E4027DFC
S11305E800BA027D00E402FA000000FA00C701FA2A
S11305F8006E02F4014B02FA002A02FA000B027D93
S113060800D2017D000B02FA000000FA005D017DB2
S1130618009F01F4015D017701B8017D000B02F42C
S113062801B80177010B027D009302E8037003F41B
S113063801B8017701B8017D007003F4013E03FAA3
S1130648001003FA00E4027D00BA027D00E402FA15
S1130658000000FA00C701FA006E02F4014B02FA26
S1130668002A02FA000B027D00D2017D000B02FA77
S1130678000000FA005D01FA009F01F4015D0177B2
S1130688010B027D00B801F4015D01770105017DCC
S113069800B801E8030A0D566F6C756D656E3A2053
S10506A800004C
S9030000FC
