S00B00005031302E7372656368
S113000071C000008EC000008CC000008AC00000D7
S113001088C0000086C0000084C0000082C00000C8
S113002080C000007EC000007CC000007AC00000D8
S113003078C0000076C0000074C0000072C00000E8
S113004070C000006EC000006CC000006AC00000F8
S113005068C000008DC0000064C0000062C00000E1
S113006060C000005EC000005CC000005AC0000018
S113007058C0000056C0000054C0000052C0000028
S113008050C000004EC000004CC000004AC0000038
S113009048C0000046C0000044C0000042C0000048
S11300A040C000003EC000003CC000003AC0000058
S11300B038C0000036C0000034C0000032C0000068
S11300C030C000002EC000002CC000002AC0000078
S11300D028C0000026C0000024C0000022C0000088
S11300E020C0000011241FBECFEFD1E2DEBFCDBF80
S11300F000E00CBF13E0A0E0B2E0E6E8F3E000E0CB
S11301000BBF02C007900D92A632B107D9F723E0C6
S1130110A6E2B3E001C01D92A134B207E1F702D018
S113012030C16ECF81E090E076D0E9D016D08CD08B
S11301308823E9F389D0803729F466E470E080E00D
S113014092E02DD081D0863511F481E037D07CD077
S1130150863769F78FEF32D0EACF82E084BD93E02F
S113016095BD16BC99EF97BD80936E007894089561
S11301701F920F920FB60F9211248F939F93809129
S113018026039091270302969093270380932603D6
S11301909F918F910F900FBE0F901F901895909381
S11301A0400380933F0310923E0360933D0382E338
S11301B080933C0380E480930101089580913C0383
S11301C0813530F480913C03865F80933C0309C001
S11301D080913C038A3028F080913C038A508093BC
S11301E03C038091B30090913C03899FC00111248A
S11301F064E670E0B3D0E4EBF0E06083608170E02B
S11302004AE088E293E03ED088E193E02DD088E292
S113021093E02AC0089522E02093C00028E12093AF
S1130220C10026E02093C200892B39F48FEC90E0C2
S11302309093C5008093C400089587E690E090935E
S1130240C5008093C4000895E0ECF0E08081882329
S1130250ECF78091C6000895E0ECF0E0908195FF02
S1130260FDCF8093C6000895CF93DF93EC0188817E
S1130270882329F02196F0DF89918111FCCFDF9149
S1130280CF9108950F931F93CF93DF93FC019B01AC
S1130290C0E0D0E0042F10E002C0EC01FD01C90170
S11302A0B80148D0262F372F8A30910510F0895C89
S11302B001C0805DDF0111968083CE010196211576
S11302C0310559F71182A81BB90B209799F0FD014C
S11302D0A80FB91F80E090E020813E91231711F010
S11302E030832C93019631969E01281B390B82177B
S11302F0930790F3DF91CF911F910F9108958EEFA3
S11303008DB982E08093C00098E19093C10096E09B
S11303109093C20014BC85BD6099FECF16BC609B4F
S1130320FECF15BC86B590E001979093C5008093ED
S1130330C4000895AA1BBB1B51E107C0AA1FBB1F21
S1130340A617B70710F0A61BB70B881F991F5A955D
S1130350A9F780959095BC01CD01089597FB072ED0
S113036016F4009406D077FD08D0E4DF07FC05D02E
S11303703EF4909581959F4F0895709561957F4FB8
S10903800895F894FFCF7C
S1130386B801F401B801F401B801F4015D01770183
S11303960B027D00B801F4015D0177010B027D00BB
S11303A6B801E8039302F4019302F4019302F40101
S11303B6BA0277010B027D009F01F4015D0177010A
S11303C60B027D00B801E8037003F401B80177015C
S11303D6B8017D007003F4013E03FA001003FA002D
S11303E6E4027D00BA027D00E402FA000000FA008D
S11303F6C701FA006E02F4014B02FA002A02FA005F
S11304060B027D00D2017D000B02FA000000FA0007
S11304165D017D009F01F4015D017701B8017D0056
S11304260B02F401B80177010B027D009302E80385
S11304367003F401B8017701B8017D007003F4017B
S11304463E03FA001003FA00E4027D00BA027D00BE
S1130456E402FA000000FA00C701FA006E02F40191
S11304664B02FA002A02FA000B027D00D2017D003B
S11304760B02FA000000FA005D01FA009F01F40184
S11304865D0177010B027D00B801F4015D0177017E
S113049605017D00B801E8030A0D0A0D566F6C7557
S10904A66D656E3A2000B2
S9030000FC
